{
  "contractName": "PlutarhToken",
  "abi": [
    {
      "inputs": [],
      "payable": false,
      "stateMutability": "nonpayable",
      "type": "constructor"
    },
    {
      "constant": true,
      "inputs": [],
      "name": "totalSupply",
      "outputs": [
        {
          "internalType": "uint256",
          "name": "",
          "type": "uint256"
        }
      ],
      "payable": false,
      "stateMutability": "view",
      "type": "function"
    }
  ],
  "bytecode": "0x6080604052348015600f57600080fd5b50620186a06000819055506084806100286000396000f3fe6080604052348015600f57600080fd5b506004361060285760003560e01c806318160ddd14602d575b600080fd5b60336049565b6040518082815260200191505060405180910390f35b6000548156fea265627a7a7231582018ff62377a3348d014a3647ac017e9ad22760545aa1e902137cad496a794c8c764736f6c63430005100032",
  "source": "pragma solidity ^0.5.0;\r\n\r\n\r\n/**\r\n * The PlutarhToken contract \r\n */\r\n contract PlutarhToken {\r\n   //constructor\r\n   //set number of total tokens\r\n   //read the total number of tokens\r\n   uint256 public totalSupply;\r\n   \r\n\r\n   constructor() public {\r\n   \ttotalSupply = 100000;\r\n\r\n   }\r\n }\r\n\r\n\r\n\r\n",
  "sourcePath": "C:/Users/DOMO/token_sale/contracts/PlutarhToken.sol",
  "compiler": {
    "name": "solc",
    "version": "0.5.16+commit.9c3226ce.Emscripten.clang"
  },
  "schemaVersion": "3.3.2",
  "updatedAt": "2020-11-30T18:47:24.437Z",
  "networkType": "ethereum",
  "devdoc": {
    "methods": {}
  },
  "userdoc": {
    "methods": {},
    "notice": "The PlutarhToken contract "
  }
}